{
  "contractName": "Bank",
  "abi": [
    {
      "anonymous": false,
      "inputs": [
        {
          "indexed": true,
          "internalType": "address",
          "name": "previousOwner",
          "type": "address"
        },
        {
          "indexed": true,
          "internalType": "address",
          "name": "newOwner",
          "type": "address"
        }
      ],
      "name": "OwnershipTransferred",
      "type": "event"
    },
    {
      "inputs": [],
      "name": "BANK_FEE_ADDRESS",
      "outputs": [
        {
          "internalType": "address",
          "name": "",
          "type": "address"
        }
      ],
      "stateMutability": "view",
      "type": "function",
      "constant": true
    },
    {
      "inputs": [],
      "name": "DAI_ADDRESS",
      "outputs": [
        {
          "internalType": "address",
          "name": "",
          "type": "address"
        }
      ],
      "stateMutability": "view",
      "type": "function",
      "constant": true
    },
    {
      "inputs": [],
      "name": "ERC20_ADDRESS",
      "outputs": [
        {
          "internalType": "address",
          "name": "",
          "type": "address"
        }
      ],
      "stateMutability": "view",
      "type": "function",
      "constant": true
    },
    {
      "inputs": [],
      "name": "USDC_ADDRESS",
      "outputs": [
        {
          "internalType": "address",
          "name": "",
          "type": "address"
        }
      ],
      "stateMutability": "view",
      "type": "function",
      "constant": true
    },
    {
      "inputs": [],
      "name": "bankFee",
      "outputs": [
        {
          "internalType": "uint256",
          "name": "",
          "type": "uint256"
        }
      ],
      "stateMutability": "view",
      "type": "function",
      "constant": true
    },
    {
      "inputs": [],
      "name": "owner",
      "outputs": [
        {
          "internalType": "address",
          "name": "",
          "type": "address"
        }
      ],
      "stateMutability": "view",
      "type": "function",
      "constant": true
    },
    {
      "inputs": [],
      "name": "renounceOwnership",
      "outputs": [],
      "stateMutability": "nonpayable",
      "type": "function"
    },
    {
      "inputs": [
        {
          "internalType": "address",
          "name": "newOwner",
          "type": "address"
        }
      ],
      "name": "transferOwnership",
      "outputs": [],
      "stateMutability": "nonpayable",
      "type": "function"
    },
    {
      "inputs": [
        {
          "internalType": "uint256",
          "name": "amount",
          "type": "uint256"
        }
      ],
      "name": "deposit",
      "outputs": [
        {
          "internalType": "uint256",
          "name": "",
          "type": "uint256"
        }
      ],
      "stateMutability": "nonpayable",
      "type": "function"
    },
    {
      "inputs": [
        {
          "internalType": "uint256",
          "name": "amount",
          "type": "uint256"
        }
      ],
      "name": "withdraw",
      "outputs": [
        {
          "internalType": "uint256",
          "name": "",
          "type": "uint256"
        }
      ],
      "stateMutability": "nonpayable",
      "type": "function"
    },
    {
      "inputs": [
        {
          "internalType": "uint256",
          "name": "amount",
          "type": "uint256"
        }
      ],
      "name": "calculateBankFee",
      "outputs": [
        {
          "internalType": "uint256",
          "name": "",
          "type": "uint256"
        },
        {
          "internalType": "uint256",
          "name": "",
          "type": "uint256"
        }
      ],
      "stateMutability": "view",
      "type": "function",
      "constant": true
    },
    {
      "inputs": [
        {
          "internalType": "uint256",
          "name": "fee",
          "type": "uint256"
        }
      ],
      "name": "setBankFee",
      "outputs": [
        {
          "internalType": "uint256",
          "name": "",
          "type": "uint256"
        }
      ],
      "stateMutability": "nonpayable",
      "type": "function"
    },
    {
      "inputs": [
        {
          "internalType": "address",
          "name": "_owner",
          "type": "address"
        }
      ],
      "name": "getBalanceForBankUser",
      "outputs": [
        {
          "internalType": "uint256",
          "name": "",
          "type": "uint256"
        }
      ],
      "stateMutability": "view",
      "type": "function",
      "constant": true
    }
  ],
  "bytecode": "0x6080604052600060025534801561001557600080fd5b5060006100266100c960201b60201c565b9050806000806101000a81548173ffffffffffffffffffffffffffffffffffffffff021916908373ffffffffffffffffffffffffffffffffffffffff1602179055508073ffffffffffffffffffffffffffffffffffffffff16600073ffffffffffffffffffffffffffffffffffffffff167f8be0079c531659141344cd1fd0a4f28419497f9722a3daafe3b4186f6b6457e060405160405180910390a3506100d1565b600033905090565b61113a806100e06000396000f3fe608060405234801561001057600080fd5b50600436106100cf5760003560e01c8063715018a61161008c5780639c59d75a116100665780639c59d75a14610299578063b6b55f25146102f1578063bb09d9b714610333578063f2fde38b14610367576100cf565b8063715018a6146102275780638da5cb5b146102315780639880c07014610265576100cf565b806301ee79ab146100d45780630762bcbd146101165780632a4c0a1a1461014a5780632e1a7d4d1461017e57806360629486146101c057806363299737146101de575b600080fd5b610100600480360360208110156100ea57600080fd5b81019080803590602001909291905050506103ab565b6040518082815260200191505060405180910390f35b61011e61046d565b604051808273ffffffffffffffffffffffffffffffffffffffff16815260200191505060405180910390f35b610152610485565b604051808273ffffffffffffffffffffffffffffffffffffffff16815260200191505060405180910390f35b6101aa6004803603602081101561019457600080fd5b810190808035906020019092919050505061049d565b6040518082815260200191505060405180910390f35b6101c8610801565b6040518082815260200191505060405180910390f35b61020a600480360360208110156101f457600080fd5b8101908080359060200190929190505050610807565b604051808381526020018281526020019250505060405180910390f35b61022f6108cb565b005b610239610a38565b604051808273ffffffffffffffffffffffffffffffffffffffff16815260200191505060405180910390f35b61026d610a61565b604051808273ffffffffffffffffffffffffffffffffffffffff16815260200191505060405180910390f35b6102db600480360360208110156102af57600080fd5b81019080803573ffffffffffffffffffffffffffffffffffffffff169060200190929190505050610a79565b6040518082815260200191505060405180910390f35b61031d6004803603602081101561030757600080fd5b8101908080359060200190929190505050610ac2565b6040518082815260200191505060405180910390f35b61033b610c91565b604051808273ffffffffffffffffffffffffffffffffffffffff16815260200191505060405180910390f35b6103a96004803603602081101561037d57600080fd5b81019080803573ffffffffffffffffffffffffffffffffffffffff169060200190929190505050610ca9565b005b60006103b5610e9b565b73ffffffffffffffffffffffffffffffffffffffff166103d3610a38565b73ffffffffffffffffffffffffffffffffffffffff161461045c576040517f08c379a00000000000000000000000000000000000000000000000000000000081526004018080602001828103825260208152602001807f4f776e61626c653a2063616c6c6572206973206e6f7420746865206f776e657281525060200191505060405180910390fd5b816002819055506002549050919050565b736b175474e89094c44da98b954eedeac495271d0f81565b736b175474e89094c44da98b954eedeac495271d0f81565b600080736b175474e89094c44da98b954eedeac495271d0f9050600083118015610506575082600160003373ffffffffffffffffffffffffffffffffffffffff1673ffffffffffffffffffffffffffffffffffffffff1681526020019081526020016000205410155b61050f57600080fd5b60008061051b85610807565b915091508273ffffffffffffffffffffffffffffffffffffffff1663a9059cbb33846040518363ffffffff1660e01b8152600401808373ffffffffffffffffffffffffffffffffffffffff16815260200182815260200192505050602060405180830381600087803b15801561059057600080fd5b505af11580156105a4573d6000803e3d6000fd5b505050506040513d60208110156105ba57600080fd5b81019080805190602001909291905050505061061e82600160003373ffffffffffffffffffffffffffffffffffffffff1673ffffffffffffffffffffffffffffffffffffffff16815260200190815260200160002054610ea390919063ffffffff16565b600160003373ffffffffffffffffffffffffffffffffffffffff1673ffffffffffffffffffffffffffffffffffffffff168152602001908152602001600020819055508273ffffffffffffffffffffffffffffffffffffffff1663a9059cbb73cd0bf0039d0f09cf93f9a05fb57c2328f6d525a3836040518363ffffffff1660e01b8152600401808373ffffffffffffffffffffffffffffffffffffffff16815260200182815260200192505050602060405180830381600087803b1580156106e657600080fd5b505af11580156106fa573d6000803e3d6000fd5b505050506040513d602081101561071057600080fd5b81019080805190602001909291905050505061077481600160003373ffffffffffffffffffffffffffffffffffffffff1673ffffffffffffffffffffffffffffffffffffffff16815260200190815260200160002054610ea390919063ffffffff16565b600160003373ffffffffffffffffffffffffffffffffffffffff1673ffffffffffffffffffffffffffffffffffffffff16815260200190815260200160002081905550600160003373ffffffffffffffffffffffffffffffffffffffff1673ffffffffffffffffffffffffffffffffffffffff168152602001908152602001600020549350505050919050565b60025481565b600080600060129050600061082b8260ff16600a0a86610f2690919063ffffffff16565b905060008260ff16600a0a600302905060008360ff16600a0a6103e80290506000610871826108638587610f2690919063ffffffff16565b610fac90919063ffffffff16565b905060006108888286610ea390919063ffffffff16565b90506108a38660ff16600a0a82610fac90919063ffffffff16565b6108bc8760ff16600a0a84610fac90919063ffffffff16565b97509750505050505050915091565b6108d3610e9b565b73ffffffffffffffffffffffffffffffffffffffff166108f1610a38565b73ffffffffffffffffffffffffffffffffffffffff161461097a576040517f08c379a00000000000000000000000000000000000000000000000000000000081526004018080602001828103825260208152602001807f4f776e61626c653a2063616c6c6572206973206e6f7420746865206f776e657281525060200191505060405180910390fd5b600073ffffffffffffffffffffffffffffffffffffffff1660008054906101000a900473ffffffffffffffffffffffffffffffffffffffff1673ffffffffffffffffffffffffffffffffffffffff167f8be0079c531659141344cd1fd0a4f28419497f9722a3daafe3b4186f6b6457e060405160405180910390a360008060006101000a81548173ffffffffffffffffffffffffffffffffffffffff021916908373ffffffffffffffffffffffffffffffffffffffff160217905550565b60008060009054906101000a900473ffffffffffffffffffffffffffffffffffffffff16905090565b73cd0bf0039d0f09cf93f9a05fb57c2328f6d525a381565b6000600160008373ffffffffffffffffffffffffffffffffffffffff1673ffffffffffffffffffffffffffffffffffffffff168152602001908152602001600020549050919050565b600080736b175474e89094c44da98b954eedeac495271d0f905060008311610ae957600080fd5b8073ffffffffffffffffffffffffffffffffffffffff166323b872dd3330866040518463ffffffff1660e01b8152600401808473ffffffffffffffffffffffffffffffffffffffff1681526020018373ffffffffffffffffffffffffffffffffffffffff1681526020018281526020019350505050602060405180830381600087803b158015610b7857600080fd5b505af1158015610b8c573d6000803e3d6000fd5b505050506040513d6020811015610ba257600080fd5b810190808051906020019092919050505050610c0683600160003373ffffffffffffffffffffffffffffffffffffffff1673ffffffffffffffffffffffffffffffffffffffff1681526020019081526020016000205461103590919063ffffffff16565b600160003373ffffffffffffffffffffffffffffffffffffffff1673ffffffffffffffffffffffffffffffffffffffff16815260200190815260200160002081905550600160003373ffffffffffffffffffffffffffffffffffffffff1673ffffffffffffffffffffffffffffffffffffffff16815260200190815260200160002054915050919050565b73a0b86991c6218b36c1d19d4a2e9eb0ce3606eb4881565b610cb1610e9b565b73ffffffffffffffffffffffffffffffffffffffff16610ccf610a38565b73ffffffffffffffffffffffffffffffffffffffff1614610d58576040517f08c379a00000000000000000000000000000000000000000000000000000000081526004018080602001828103825260208152602001807f4f776e61626c653a2063616c6c6572206973206e6f7420746865206f776e657281525060200191505060405180910390fd5b600073ffffffffffffffffffffffffffffffffffffffff168173ffffffffffffffffffffffffffffffffffffffff161415610dde576040517f08c379a00000000000000000000000000000000000000000000000000000000081526004018080602001828103825260268152602001806110be6026913960400191505060405180910390fd5b8073ffffffffffffffffffffffffffffffffffffffff1660008054906101000a900473ffffffffffffffffffffffffffffffffffffffff1673ffffffffffffffffffffffffffffffffffffffff167f8be0079c531659141344cd1fd0a4f28419497f9722a3daafe3b4186f6b6457e060405160405180910390a3806000806101000a81548173ffffffffffffffffffffffffffffffffffffffff021916908373ffffffffffffffffffffffffffffffffffffffff16021790555050565b600033905090565b600082821115610f1b576040517f08c379a000000000000000000000000000000000000000000000000000000000815260040180806020018281038252601e8152602001807f536166654d6174683a207375627472616374696f6e206f766572666c6f77000081525060200191505060405180910390fd5b818303905092915050565b600080831415610f395760009050610fa6565b6000828402905082848281610f4a57fe5b0414610fa1576040517f08c379a00000000000000000000000000000000000000000000000000000000081526004018080602001828103825260218152602001806110e46021913960400191505060405180910390fd5b809150505b92915050565b6000808211611023576040517f08c379a000000000000000000000000000000000000000000000000000000000815260040180806020018281038252601a8152602001807f536166654d6174683a206469766973696f6e206279207a65726f00000000000081525060200191505060405180910390fd5b81838161102c57fe5b04905092915050565b6000808284019050838110156110b3576040517f08c379a000000000000000000000000000000000000000000000000000000000815260040180806020018281038252601b8152602001807f536166654d6174683a206164646974696f6e206f766572666c6f77000000000081525060200191505060405180910390fd5b809150509291505056fe4f776e61626c653a206e6577206f776e657220697320746865207a65726f2061646472657373536166654d6174683a206d756c7469706c69636174696f6e206f766572666c6f77a2646970667358221220670e2f794169ce53e84e23c48a6a6f426a52f58c6db2e4475c0dcdfae6dae04264736f6c63430007060033",
  "immutableReferences": {},
  "source": "// SPDX-License-Identifier: MIT\n\npragma solidity >=0.6.0 <0.8.0;\n\nimport \"@openzeppelin/contracts/token/ERC20/IERC20.sol\";\nimport \"@openzeppelin/contracts/access/Ownable.sol\";\nimport \"@openzeppelin/contracts/math/SafeMath.sol\";\n\n/// @title A sample bank contract\n/// @author Will Papper and Syndicate Inc.\n/// @notice The Bank contract keeps track of the deposits and withdrawals for a\n/// single user. The bank takes a 0.3% fee on every withdrawal. The bank contract\n/// supports deposits and withdrawals for any ERC-20, but only one ERC-20 token\n/// can be used per bank contract.\n/// @dev Security for the Bank contract is paramount :) You can assume that the\n/// owner of the Bank contract is the first account in Ganache (accounts[0]\n/// within Bank.js), and that the user of the bank is not the owner of the Bank\n/// contract (e.g. the user of the bank is accounts[1] within Bank.js, not\n/// accounts[0]).\ncontract Bank is Ownable {\n    using SafeMath for uint256;\n    // The contract address for DAI\n    address public constant DAI_ADDRESS =\n        0x6B175474E89094C44Da98b954EedeAC495271d0F;\n    // The contract address for USDC\n    address public constant USDC_ADDRESS =\n        0xA0b86991c6218b36c1d19D4a2e9Eb0cE3606eB48;\n    // The address where bank fees should be sent\n    address public constant BANK_FEE_ADDRESS =\n        0xcD0Bf0039d0F09CF93f9a05fB57C2328F6D525A3;\n\n\n    mapping (address => uint256) private _balances;\n\n    // The bank should take a fee of 0.3% on every withdrawal. For example, if a\n    // user is withdrawing 1000 DAI, the bank should receive 3 DAI. If a user is\n    // withdrawing 100 DAI, the bank should receive .3 DAI. The same should hold\n    // true for USDC as well.\n    // The bankFee is set using setBankFee();\n    uint256 public bankFee = 0;\n\n    // You should change this value to USDC_ADDRESS if you want to set the bank\n    // to use USDC.\n    address public constant ERC20_ADDRESS = DAI_ADDRESS;\n\n    /// @notice Process a deposit to the bank\n    /// @param amount The amount that a user wants to deposit\n    /// @return balance The current account balance\n    function deposit(uint256 amount) public returns (uint256) {\n        // Initialize the ERC20 for USDC or DAI\n        IERC20 erc20 = IERC20(ERC20_ADDRESS);\n\n        // Transfer funds from the user to the bank\n        \n        // validate the amout is greater than 0\n        // validate the account has the amount to withdraw \n        \n        require(amount > 0);\n\n\n        erc20.transferFrom(msg.sender, address(this), amount);\n\n        // Increase the balance by the deposit amount and return the balance\n        // balance += amount;\n        // _balances[msg.sender] += amount;\n\n        //  Does Solc ^0.8.0 have automatic under/overflow checks?\n        _balances[msg.sender] = _balances[msg.sender].add(amount);\n        return _balances[msg.sender];\n    }\n\n    /// @notice Process a withdrawal from the bank\n    /// @param amount The amount that a user wants to withdraw. The bank takes a\n    /// 0.3% fee on every withdrawal\n    /// @return balance The current account balance\n    function withdraw(uint256 amount) public returns (uint256) {\n        // Initialize the ERC20 for USDC or DAI\n        IERC20 erc20 = IERC20(ERC20_ADDRESS);\n        \n        // validate the amout is greater than 0\n        // validate the account has the amount to withdraw \n        \n        require(amount > 0 && _balances[msg.sender] >= amount);\n\n        // Calculate the fee that is owed to the bank\n        (uint256 amountToUser, uint256 amountToBank) = calculateBankFee(amount);\n\n        erc20.transfer(msg.sender, amountToUser);\n        // Decrease the balance by the amount sent to the user\n        // balance -= amountToUser;\n        // _balances[msg.sender] -= amountToUser;\n        _balances[msg.sender] = _balances[msg.sender].sub(amountToUser);\n\n        erc20.transfer(BANK_FEE_ADDRESS, amountToBank);\n        // Decrease the balance by the amount sent to the bank\n        // balance -= amountToBank;\n        // _balances[msg.sender] -= amountToBank;\n        _balances[msg.sender] = _balances[msg.sender].sub(amountToBank);\n\n        return _balances[msg.sender];\n    }\n\n    /// @notice Calculate the fee that should go to the bank\n    /// @param amount The amount that a fee should be deducted from\n    /// @return A tuple of (amountToUser, amountToBank)\n    function calculateBankFee(uint256 amount)\n        public\n        view\n        returns (uint256, uint256)\n    {\n        // TODO: Implement the 0.3% fee to the bank here\n\n        // the default decimal places for erc20Tokens\n        uint8 decimals = 18;\n\n        uint256 amountInWei = amount.mul(10**uint256(decimals));\n        uint256 fee = 3 * (10**uint256(decimals));\n        uint256 percentage = 1000 * (10**uint256(decimals));\n\n        uint256 amountToBank = amountInWei.mul(fee).div(percentage);\n        uint256 amountToUser = amountInWei.sub(amountToBank);\n\n        // convering back the amountToUser and amountToBank\n        return (amountToUser.div(10**uint256(decimals)), amountToBank.div(10**uint256(decimals)));\n    }\n\n    /// @notice Set the fee that the bank takes\n    /// @param fee The fee that bankFee should be set to\n    /// @return bankFee The new value of the bank fee\n    function setBankFee(uint256 fee) public onlyOwner returns (uint256) {\n        bankFee = fee;\n        return bankFee;\n    }\n\n    /// @notice Get the user's bank balance\n    /// @return balance The balance of the user\n    function getBalanceForBankUser(address _owner) public view returns (uint256) {\n        return _balances[_owner];\n    }\n}",
  "sourcePath": "/Users/imire/Desktop/Bank-Solidity-Hiring/contracts/Bank.sol",
  "compiler": {
    "name": "solc",
    "version": "0.7.6+commit.7338295f.Emscripten.clang"
  },
  "schemaVersion": "3.4.0",
  "updatedAt": "2021-06-08T12:34:21.723Z",
  "networkType": "ethereum",
  "devdoc": {
    "author": "Will Papper and Syndicate Inc.",
    "details": "Security for the Bank contract is paramount :) You can assume that the owner of the Bank contract is the first account in Ganache (accounts[0] within Bank.js), and that the user of the bank is not the owner of the Bank contract (e.g. the user of the bank is accounts[1] within Bank.js, not accounts[0]).",
    "kind": "dev",
    "methods": {
      "calculateBankFee(uint256)": {
        "params": {
          "amount": "The amount that a fee should be deducted from"
        },
        "returns": {
          "_0": "A tuple of (amountToUser, amountToBank)"
        }
      },
      "deposit(uint256)": {
        "params": {
          "amount": "The amount that a user wants to deposit"
        },
        "returns": {
          "_0": "balance The current account balance"
        }
      },
      "getBalanceForBankUser(address)": {
        "returns": {
          "_0": "balance The balance of the user"
        }
      },
      "owner()": {
        "details": "Returns the address of the current owner."
      },
      "renounceOwnership()": {
        "details": "Leaves the contract without owner. It will not be possible to call `onlyOwner` functions anymore. Can only be called by the current owner. NOTE: Renouncing ownership will leave the contract without an owner, thereby removing any functionality that is only available to the owner."
      },
      "setBankFee(uint256)": {
        "params": {
          "fee": "The fee that bankFee should be set to"
        },
        "returns": {
          "_0": "bankFee The new value of the bank fee"
        }
      },
      "transferOwnership(address)": {
        "details": "Transfers ownership of the contract to a new account (`newOwner`). Can only be called by the current owner."
      },
      "withdraw(uint256)": {
        "params": {
          "amount": "The amount that a user wants to withdraw. The bank takes a 0.3% fee on every withdrawal"
        },
        "returns": {
          "_0": "balance The current account balance"
        }
      }
    },
    "title": "A sample bank contract",
    "version": 1
  },
  "userdoc": {
    "kind": "user",
    "methods": {
      "calculateBankFee(uint256)": {
        "notice": "Calculate the fee that should go to the bank"
      },
      "deposit(uint256)": {
        "notice": "Process a deposit to the bank"
      },
      "getBalanceForBankUser(address)": {
        "notice": "Get the user's bank balance"
      },
      "setBankFee(uint256)": {
        "notice": "Set the fee that the bank takes"
      },
      "withdraw(uint256)": {
        "notice": "Process a withdrawal from the bank"
      }
    },
    "notice": "The Bank contract keeps track of the deposits and withdrawals for a single user. The bank takes a 0.3% fee on every withdrawal. The bank contract supports deposits and withdrawals for any ERC-20, but only one ERC-20 token can be used per bank contract.",
    "version": 1
  }
}