{
  "contractName": "Bank",
  "abi": [
    {
      "inputs": [
        {
          "internalType": "string",
          "name": "name_",
          "type": "string"
        },
        {
          "internalType": "string",
          "name": "symbol_",
          "type": "string"
        }
      ],
      "stateMutability": "nonpayable",
      "type": "constructor"
    },
    {
      "inputs": [],
      "name": "BANK_FEE_ADDRESS",
      "outputs": [
        {
          "internalType": "address",
          "name": "",
          "type": "address"
        }
      ],
      "stateMutability": "view",
      "type": "function"
    },
    {
      "inputs": [],
      "name": "DAI_ADDRESS",
      "outputs": [
        {
          "internalType": "address",
          "name": "",
          "type": "address"
        }
      ],
      "stateMutability": "view",
      "type": "function"
    },
    {
      "inputs": [],
      "name": "ERC20_ADDRESS",
      "outputs": [
        {
          "internalType": "address",
          "name": "",
          "type": "address"
        }
      ],
      "stateMutability": "view",
      "type": "function"
    },
    {
      "inputs": [],
      "name": "USDC_ADDRESS",
      "outputs": [
        {
          "internalType": "address",
          "name": "",
          "type": "address"
        }
      ],
      "stateMutability": "view",
      "type": "function"
    },
    {
      "inputs": [],
      "name": "bankFee",
      "outputs": [
        {
          "internalType": "uint256",
          "name": "",
          "type": "uint256"
        }
      ],
      "stateMutability": "view",
      "type": "function"
    },
    {
      "inputs": [],
      "name": "name",
      "outputs": [
        {
          "internalType": "string",
          "name": "",
          "type": "string"
        }
      ],
      "stateMutability": "view",
      "type": "function"
    },
    {
      "inputs": [],
      "name": "symbol",
      "outputs": [
        {
          "internalType": "string",
          "name": "",
          "type": "string"
        }
      ],
      "stateMutability": "view",
      "type": "function"
    },
    {
      "inputs": [],
      "name": "decimals",
      "outputs": [
        {
          "internalType": "uint8",
          "name": "",
          "type": "uint8"
        }
      ],
      "stateMutability": "view",
      "type": "function"
    },
    {
      "inputs": [
        {
          "internalType": "uint256",
          "name": "amount",
          "type": "uint256"
        }
      ],
      "name": "deposit",
      "outputs": [
        {
          "internalType": "uint256",
          "name": "",
          "type": "uint256"
        }
      ],
      "stateMutability": "nonpayable",
      "type": "function"
    },
    {
      "inputs": [
        {
          "internalType": "uint256",
          "name": "amount",
          "type": "uint256"
        }
      ],
      "name": "withdraw",
      "outputs": [
        {
          "internalType": "uint256",
          "name": "",
          "type": "uint256"
        }
      ],
      "stateMutability": "nonpayable",
      "type": "function"
    },
    {
      "inputs": [
        {
          "internalType": "uint256",
          "name": "amount",
          "type": "uint256"
        }
      ],
      "name": "calculateBankFee",
      "outputs": [
        {
          "internalType": "uint256",
          "name": "",
          "type": "uint256"
        },
        {
          "internalType": "uint256",
          "name": "",
          "type": "uint256"
        }
      ],
      "stateMutability": "view",
      "type": "function"
    },
    {
      "inputs": [
        {
          "internalType": "uint256",
          "name": "fee",
          "type": "uint256"
        }
      ],
      "name": "setBankFee",
      "outputs": [
        {
          "internalType": "uint256",
          "name": "",
          "type": "uint256"
        }
      ],
      "stateMutability": "nonpayable",
      "type": "function"
    },
    {
      "inputs": [],
      "name": "getBalanceForBankUser",
      "outputs": [
        {
          "internalType": "uint256",
          "name": "",
          "type": "uint256"
        }
      ],
      "stateMutability": "view",
      "type": "function"
    }
  ],
  "bytecode": "0x608060405260006003553480156200001657600080fd5b5060405162000dd138038062000dd1833981810160405260408110156200003c57600080fd5b81019080805160405193929190846401000000008211156200005d57600080fd5b838201915060208201858111156200007457600080fd5b82518660018202830111640100000000821117156200009257600080fd5b8083526020830192505050908051906020019080838360005b83811015620000c8578082015181840152602081019050620000ab565b50505050905090810190601f168015620000f65780820380516001836020036101000a031916815260200191505b50604052602001805160405193929190846401000000008211156200011a57600080fd5b838201915060208201858111156200013157600080fd5b82518660018202830111640100000000821117156200014f57600080fd5b8083526020830192505050908051906020019080838360005b838110156200018557808201518184015260208101905062000168565b50505050905090810190601f168015620001b35780820380516001836020036101000a031916815260200191505b506040525050508160019080519060200190620001d2929190620001f4565b508060029080519060200190620001eb929190620001f4565b505050620002aa565b828054600181600116156101000203166002900490600052602060002090601f0160209004810192826200022c576000855562000278565b82601f106200024757805160ff191683800117855562000278565b8280016001018555821562000278579182015b82811115620002775782518255916020019190600101906200025a565b5b5090506200028791906200028b565b5090565b5b80821115620002a65760008160009055506001016200028c565b5090565b610b1780620002ba6000396000f3fe608060405234801561001057600080fd5b50600436106100cf5760003560e01c806347f4f3f81161008c57806395d89b411161006657806395d89b41146102e95780639880c0701461036c578063b6b55f25146103a0578063bb09d9b7146103e2576100cf565b806347f4f3f814610264578063606294861461028257806363299737146102a0576100cf565b806301ee79ab146100d457806306fdde03146101165780630762bcbd146101995780632a4c0a1a146101cd5780632e1a7d4d14610201578063313ce56714610243575b600080fd5b610100600480360360208110156100ea57600080fd5b8101908080359060200190929190505050610416565b6040518082815260200191505060405180910390f35b61011e610429565b6040518080602001828103825283818151815260200191508051906020019080838360005b8381101561015e578082015181840152602081019050610143565b50505050905090810190601f16801561018b5780820380516001836020036101000a031916815260200191505b509250505060405180910390f35b6101a16104cb565b604051808273ffffffffffffffffffffffffffffffffffffffff16815260200191505060405180910390f35b6101d56104e3565b604051808273ffffffffffffffffffffffffffffffffffffffff16815260200191505060405180910390f35b61022d6004803603602081101561021757600080fd5b81019080803590602001909291905050506104fb565b6040518082815260200191505060405180910390f35b61024b6107cb565b604051808260ff16815260200191505060405180910390f35b61026c6107d4565b6040518082815260200191505060405180910390f35b61028a61081a565b6040518082815260200191505060405180910390f35b6102cc600480360360208110156102b657600080fd5b8101908080359060200190929190505050610820565b604051808381526020018281526020019250505060405180910390f35b6102f1610840565b6040518080602001828103825283818151815260200191508051906020019080838360005b83811015610331578082015181840152602081019050610316565b50505050905090810190601f16801561035e5780820380516001836020036101000a031916815260200191505b509250505060405180910390f35b6103746108e2565b604051808273ffffffffffffffffffffffffffffffffffffffff16815260200191505060405180910390f35b6103cc600480360360208110156103b657600080fd5b81019080803590602001909291905050506108fa565b6040518082815260200191505060405180910390f35b6103ea610ac9565b604051808273ffffffffffffffffffffffffffffffffffffffff16815260200191505060405180910390f35b6000816003819055506003549050919050565b606060018054600181600116156101000203166002900480601f0160208091040260200160405190810160405280929190818152602001828054600181600116156101000203166002900480156104c15780601f10610496576101008083540402835291602001916104c1565b820191906000526020600020905b8154815290600101906020018083116104a457829003601f168201915b5050505050905090565b736b175474e89094c44da98b954eedeac495271d0f81565b736b175474e89094c44da98b954eedeac495271d0f81565b600080736b175474e89094c44da98b954eedeac495271d0f90506000831180156105635750826000803373ffffffffffffffffffffffffffffffffffffffff1673ffffffffffffffffffffffffffffffffffffffff1681526020019081526020016000205410155b61056c57600080fd5b60008061057885610820565b915091508273ffffffffffffffffffffffffffffffffffffffff1663a9059cbb33846040518363ffffffff1660e01b8152600401808373ffffffffffffffffffffffffffffffffffffffff16815260200182815260200192505050602060405180830381600087803b1580156105ed57600080fd5b505af1158015610601573d6000803e3d6000fd5b505050506040513d602081101561061757600080fd5b810190808051906020019092919050505050816000803373ffffffffffffffffffffffffffffffffffffffff1673ffffffffffffffffffffffffffffffffffffffff168152602001908152602001600020600082825403925050819055508273ffffffffffffffffffffffffffffffffffffffff1663a9059cbb73cd0bf0039d0f09cf93f9a05fb57c2328f6d525a3836040518363ffffffff1660e01b8152600401808373ffffffffffffffffffffffffffffffffffffffff16815260200182815260200192505050602060405180830381600087803b1580156106fa57600080fd5b505af115801561070e573d6000803e3d6000fd5b505050506040513d602081101561072457600080fd5b810190808051906020019092919050505050806000803373ffffffffffffffffffffffffffffffffffffffff1673ffffffffffffffffffffffffffffffffffffffff168152602001908152602001600020600082825403925050819055506000803373ffffffffffffffffffffffffffffffffffffffff1673ffffffffffffffffffffffffffffffffffffffff168152602001908152602001600020549350505050919050565b60006012905090565b60008060003373ffffffffffffffffffffffffffffffffffffffff1673ffffffffffffffffffffffffffffffffffffffff16815260200190815260200160002054905090565b60035481565b600080600060035484029050600081850390508082935093505050915091565b606060028054600181600116156101000203166002900480601f0160208091040260200160405190810160405280929190818152602001828054600181600116156101000203166002900480156108d85780601f106108ad576101008083540402835291602001916108d8565b820191906000526020600020905b8154815290600101906020018083116108bb57829003601f168201915b5050505050905090565b73cd0bf0039d0f09cf93f9a05fb57c2328f6d525a381565b600080736b175474e89094c44da98b954eedeac495271d0f90506000831180156109625750826000803373ffffffffffffffffffffffffffffffffffffffff1673ffffffffffffffffffffffffffffffffffffffff1681526020019081526020016000205410155b61096b57600080fd5b8073ffffffffffffffffffffffffffffffffffffffff166323b872dd3330866040518463ffffffff1660e01b8152600401808473ffffffffffffffffffffffffffffffffffffffff1681526020018373ffffffffffffffffffffffffffffffffffffffff1681526020018281526020019350505050602060405180830381600087803b1580156109fa57600080fd5b505af1158015610a0e573d6000803e3d6000fd5b505050506040513d6020811015610a2457600080fd5b810190808051906020019092919050505050826000803373ffffffffffffffffffffffffffffffffffffffff1673ffffffffffffffffffffffffffffffffffffffff168152602001908152602001600020600082825401925050819055506000803373ffffffffffffffffffffffffffffffffffffffff1673ffffffffffffffffffffffffffffffffffffffff16815260200190815260200160002054915050919050565b73a0b86991c6218b36c1d19d4a2e9eb0ce3606eb488156fea26469706673582212205b9b9cf1e0ebc711cd5248d18f11673a1547d1cf0f833dc5dc847fa6b897190764736f6c63430007060033",
  "immutableReferences": {},
  "source": "// SPDX-License-Identifier: MIT\n\npragma solidity >=0.7.6;\n\nimport \"@openzeppelin/contracts/token/ERC20/IERC20.sol\";\n\n/// @title A sample bank contract\n/// @author Will Papper and Syndicate Inc.\n/// @notice The Bank contract keeps track of the deposits and withdrawals for a\n/// single user. The bank takes a 0.3% fee on every withdrawal. The bank contract\n/// supports deposits and withdrawals for any ERC-20, but only one ERC-20 token\n/// can be used per bank contract.\n/// @dev Security for the Bank contract is paramount :) You can assume that the\n/// owner of the Bank contract is the first account in Ganache (accounts[0]\n/// within Bank.js), and that the user of the bank is not the owner of the Bank\n/// contract (e.g. the user of the bank is accounts[1] within Bank.js, not\n/// accounts[0]).\ncontract Bank {\n    // The contract address for DAI\n    address public constant DAI_ADDRESS =\n        0x6B175474E89094C44Da98b954EedeAC495271d0F;\n    // The contract address for USDC\n    address public constant USDC_ADDRESS =\n        0xA0b86991c6218b36c1d19D4a2e9Eb0cE3606eB48;\n    // The address where bank fees should be sent\n    address public constant BANK_FEE_ADDRESS =\n        0xcD0Bf0039d0F09CF93f9a05fB57C2328F6D525A3;\n\n\n    mapping (address => uint256) private _balances;\n    string private _name;\n    string private _symbol;\n\n    // @dev Sets the values for {name} and {symbol}.\n    constructor (string memory name_, string memory symbol_) {\n        _name = name_;\n        _symbol = symbol_;\n    }\n\n    // @dev Returns the name of the token.\n    function name() public view returns (string memory) {\n        return _name;\n    }\n\n    // @dev Returns the symbol of the token.\n    function symbol() public view returns (string memory) {\n        return _symbol;\n    }\n\n    function decimals() public view virtual returns (uint8) {\n        return 18;\n    }\n\n    // The bank should take a fee of 0.3% on every withdrawal. For example, if a\n    // user is withdrawing 1000 DAI, the bank should receive 3 DAI. If a user is\n    // withdrawing 100 DAI, the bank should receive .3 DAI. The same should hold\n    // true for USDC as well.\n    // The bankFee is set using setBankFee();\n    uint256 public bankFee = 0;\n\n    // You should change this value to USDC_ADDRESS if you want to set the bank\n    // to use USDC.\n    address public constant ERC20_ADDRESS = DAI_ADDRESS;\n\n    /// @notice Process a deposit to the bank\n    /// @param amount The amount that a user wants to deposit\n    /// @return balance The current account balance\n    function deposit(uint256 amount) public returns (uint256) {\n        // Initialize the ERC20 for USDC or DAI\n        IERC20 erc20 = IERC20(ERC20_ADDRESS);\n\n        // Transfer funds from the user to the bank\n        \n        // validate the amout is greater than 0\n        // validate the account has the amount to withdraw \n        \n        require(amount > 0 && _balances[msg.sender] >= amount);\n        erc20.transferFrom(msg.sender, address(this), amount);\n\n        // Increase the balance by the deposit amount and return the balance\n        // balance += amount;\n        _balances[msg.sender] += amount;\n        return _balances[msg.sender];\n    }\n\n    /// @notice Process a withdrawal from the bank\n    /// @param amount The amount that a user wants to withdraw. The bank takes a\n    /// 0.3% fee on every withdrawal\n    /// @return balance The current account balance\n    function withdraw(uint256 amount) public returns (uint256) {\n        // Initialize the ERC20 for USDC or DAI\n        IERC20 erc20 = IERC20(ERC20_ADDRESS);\n        \n        // validate the amout is greater than 0\n        // validate the account has the amount to withdraw \n        \n        require(amount > 0 && _balances[msg.sender] >= amount);\n\n        // Calculate the fee that is owed to the bank\n        (uint256 amountToUser, uint256 amountToBank) = calculateBankFee(amount);\n\n        erc20.transfer(msg.sender, amountToUser);\n        // Decrease the balance by the amount sent to the user\n        // balance -= amountToUser;\n        _balances[msg.sender] -= amountToUser;\n\n        erc20.transfer(BANK_FEE_ADDRESS, amountToBank);\n        // Decrease the balance by the amount sent to the bank\n        // balance -= amountToBank;\n        _balances[msg.sender] -= amountToBank;\n\n        return _balances[msg.sender];\n    }\n\n    /// @notice Calculate the fee that should go to the bank\n    /// @param amount The amount that a fee should be deducted from\n    /// @return A tuple of (amountToUser, amountToBank)\n    function calculateBankFee(uint256 amount)\n        public\n        view\n        returns (uint256, uint256)\n    {\n        // TODO: Implement the 0.3% fee to the bank here\n        uint256 amountToBank = amount * bankFee;\n        uint256 amountToUser = amount - amountToBank;\n        return (amountToUser, amountToBank);\n    }\n\n    /// @notice Set the fee that the bank takes\n    /// @param fee The fee that bankFee should be set to\n    /// @return bankFee The new value of the bank fee\n    function setBankFee(uint256 fee) public returns (uint256) {\n        bankFee = fee;\n        return bankFee;\n    }\n\n    /// @notice Get the user's bank balance\n    /// @return balance The balance of the user\n    function getBalanceForBankUser() public view returns (uint256) {\n        return _balances[msg.sender];\n    }\n}",
  "sourcePath": "/Users/imire/Desktop/Bank-Solidity-Hiring/contracts/Bank.sol",
  "compiler": {
    "name": "solc",
    "version": "0.7.6+commit.7338295f.Emscripten.clang"
  },
  "schemaVersion": "3.4.0",
  "updatedAt": "2021-05-17T16:00:49.621Z",
  "devdoc": {
    "author": "Will Papper and Syndicate Inc.",
    "details": "Security for the Bank contract is paramount :) You can assume that the owner of the Bank contract is the first account in Ganache (accounts[0] within Bank.js), and that the user of the bank is not the owner of the Bank contract (e.g. the user of the bank is accounts[1] within Bank.js, not accounts[0]).",
    "kind": "dev",
    "methods": {
      "calculateBankFee(uint256)": {
        "params": {
          "amount": "The amount that a fee should be deducted from"
        },
        "returns": {
          "_0": "A tuple of (amountToUser, amountToBank)"
        }
      },
      "deposit(uint256)": {
        "params": {
          "amount": "The amount that a user wants to deposit"
        },
        "returns": {
          "_0": "balance The current account balance"
        }
      },
      "getBalanceForBankUser()": {
        "returns": {
          "_0": "balance The balance of the user"
        }
      },
      "setBankFee(uint256)": {
        "params": {
          "fee": "The fee that bankFee should be set to"
        },
        "returns": {
          "_0": "bankFee The new value of the bank fee"
        }
      },
      "withdraw(uint256)": {
        "params": {
          "amount": "The amount that a user wants to withdraw. The bank takes a 0.3% fee on every withdrawal"
        },
        "returns": {
          "_0": "balance The current account balance"
        }
      }
    },
    "title": "A sample bank contract",
    "version": 1
  },
  "userdoc": {
    "kind": "user",
    "methods": {
      "calculateBankFee(uint256)": {
        "notice": "Calculate the fee that should go to the bank"
      },
      "deposit(uint256)": {
        "notice": "Process a deposit to the bank"
      },
      "getBalanceForBankUser()": {
        "notice": "Get the user's bank balance"
      },
      "setBankFee(uint256)": {
        "notice": "Set the fee that the bank takes"
      },
      "withdraw(uint256)": {
        "notice": "Process a withdrawal from the bank"
      }
    },
    "notice": "The Bank contract keeps track of the deposits and withdrawals for a single user. The bank takes a 0.3% fee on every withdrawal. The bank contract supports deposits and withdrawals for any ERC-20, but only one ERC-20 token can be used per bank contract.",
    "version": 1
  }
}